:1000000002174460A00CE80080F00E40300C101085
:10001000F01010101070000001FF00201807808001
:10002000FF0000010E70000010F01C10D03004041E
:1000300004C42414080000008748381C234282822C
:100040008282C33E020200000000000000000000A7
:10005000000000000000000020E060000000000040
:1000600000000000000000404040FC404040FC40D8
:10007000404040FC404000000000FF8080808F90A6
:100080009090908F8080000000FC94949494FC9455
:10009000949494947C000008080484621D0000007D
:1000A00000FD020404080065F000000000000000EC
:1000B0000000000000000000000000000000F8F850
:1000C0000000000000001818000000000078080080
:1000D00078000000000000000000000040E05040F8
:1000E000F0504000041F04041F040000E0B010F8AA
:1000F0001010000010107F11130E0030584870804F
:10010000603008101804030C12120C0060F090907C
:10011000700000041F1111161C1F100000007878D9
:100120000000000000000000000000000080E0303F
:100130000800000000073F60C0000000000810E059
:1001400080000000008060380F00000080A060D8B0
:100150006090000000000001000000000000C0C02E
:100160000000000002021F1F020202000000000047
:1001700000000000004058380000000000000000AF
:100180000000000000020202020000000000000067
:10019000000000000000181800000000000000C06F
:1001A000701800002018060100000000E030101058
:1001B000B0E080000F1A1311180F0300602030F018
:1001C000000000001010101F101000002010101070
:1001D000F0E00000101814121110000010101010A0
:1001E000F060000010111111190E00000080603045
:1001F000F0000004070504041F040400F0F01010D0
:100200001010000011111111190F0000C060309082
:10021000101000000F191110110F00001010101015
:10022000D070000000101C070100000060B09010AA
:1002300090E000000E121111130E0000E0301010BB
:1002400030E0000011111212090700000000C0C0C8
:100250000000000000001818000000000000C0C0EE
:1002600000000000004058380000000000008080BE
:100270004000000002030508181000000000000004
:100280000000000005050505050500000040C080D0
:100290000000000000100804070200000008181009
:1002A000F0E0000000001B0100000080E0108888E2
:1002B0008810E03F608F91889F080F0000C0703069
:1002C000E00000101E070404050F1800F0101010C5
:1002D000B0E000001F111111110E0000C02010101D
:1002E000101000000F18101010100000F010101067
:1002F00030E080001F101010080F0300F0F0101005
:10030000101000001F1F111111110000F0F010104B
:10031000101000001F1F010101010000E02010105B
:10032000101000010F181011111F0000F000000044
:1003300000F000001F010101011F00001010F0F08B
:100340001010000010101F1F1010000010101010CF
:10035000F0000000181010100F000000F0008040A6
:10036000201000001F0103060C10000000F0000028
:1003700000000000001F101010100000F0708080BE
:10038000E0F0C01C1F00030300031F00F070C0005A
:1003900000F000001F0001071C1F0080E03010105B
:1003A00010E0C0030F181010100F0700F01010100D
:1003B00030E000001F02020201010080E030101056
:1003C00010E0C0030F183070504F4700F0F01010CD
:1003D000B0E000001F1F01030F180000E0B0101074
:1003E0001010000010101111130E00001010F0F08A
:1003F0001010100000001F1F00000000F00000009F
:1004000000F000000F181010100F0010F080000016
:1004100000E0300000071C180F010030F0000080E1
:100420000000F0001F1C07031C1F03003060C08089
:1004300060301010180C03030E18101070C08000EC
:10044000C060100000001F1F01000000101010907D
:10045000D0300000181C1311101000000000F80824
:10046000080000000000FF80800000000830C0008D
:1004700000000000000000071C300000000808F821
:10048000F8000000008080FFFF00000080C03030D6
:10049000608000000000000000000000000000007C
:1004A0000000008080808080808080000008100034
:1004B000000000000000000000000000004040407C
:1004C000C08000001C1212120A1F0000F880404079
:1004D000408000001F101010100F000000804040EE
:1004E00040400000071D10101010000080C0404068
:1004F00040F800000F181010081F000080C0404096
:10050000408000000F1A1212121300008080F09831
:100510008888080000001F000000000080C04040E4
:10052000C0C040006F92949492732000F8804040C5
:10053000408000001F000000001F0000404058D80D
:10054000000000001010101F10100000404040502C
:10055000D8000000808080C07F000000F8F8008094
:10056000804000001F1F030508100000080808F85D
:10057000000000001010101F10100000C04040804C
:1005800040C080001F00001F001F1F00C0804040AF
:10059000408000001F000000001F000080C040409D
:1005A000408000000F181010100F0200C080404063
:1005B00040800000FF101010100F000080C040406D
:1005C00040C000000F18101008FF0000C0C080409D
:1005D00040C000001F1F00000001010000C040409B
:1005E0004040000010131212160C00404040F04032
:1005F0004040000000001F1010100000C00000006C
:1006000000C000000F181010081F0000C0000000FC
:1006100000C0400001071C18070100C0C000000016
:100620000000C0001F1807071C1F010040C0000089
:1006300080C00000101807070D180000C00000005F
:1006400000C0408081C77C380F010000404040401E
:10065000C0C0000010181613111000000000F018A0
:100660000808000002037FC080800000000000FC3A
:1006700000000000000000FF00000000000818F06B
:10068000000000000080C07F0302000000000000A6
:10069000000000000301010204060362F809F000F3
:1006A000000000000000000000223E0000000000EA
:1006B00002020206000000103814341C1000000072
:1006C0002C7A2E3000000004261638343200001038
:1006D0002C2A363400000000000206000000000052
:1006E000003C42000000000000423C00000000000E
:1006F000080404080000000010101810000000009A
:100700000060600000000000080808080000000009
:10071000002020000000000060100C020000000813
:10072000342A2A340800000024243C200000000061
:100730002032322C00000000202A2A340000001051
:100740001814143C100000002C2C2C300000000069
:100750003C2C2C380000000000241C040000000089
:10076000342A2A34000000002C32321C0000000021
:100770000020200000000000006060000000000079
:100780001018282400000000181818180000000095
:100790002424181000000000003A0A040000007829
:1007A000546A5A2A1C000020181414182000000053
:1007B0003C2C2C34000000003C22222000000000D1
:1007C0003C242424180000003C2C2C2800000000AD
:1007D0003C0C0C080000001824222230000000000D
:1007E0003C08083C0000000020243C2000000000E1
:1007F0002024241C000000003C08142400000000F9
:100800003C20202000000038040808043C000000C0
:100810003C0C10380000001824222224180000008C
:100820003C14140C000000182422626458000000DC
:100830003C0C1C3C000000002C2A2A300000000068
:1008400004043C04000000003C20203800000000AC
:100850000C3030080400001C201818201C00000078
:1008600024181824000000000408380400000000C8
:1008700020342C2400000000007E42020000000012
:10088000020C10600000000000027E00000000006A
:1008900008040408000000404040404040000000C0
:1008A0000002000000000000303434380000000076
:1008B0003E242438000000003828282000000000D2
:1008C0003824243E0000000038343428000000089A
:1008D000083C0A0A020000007874747840000000A6
:1008E0003E0404380000000020263A2000000000EA
:1008F0000044463A000000003E10182400000000AA
:1009000022223E20000000380804180438000000AD
:1009100038040438000000102824242810000000A7
:1009200078242438000000003824247800000000D7
:1009300038080408000000002834343000000000AB
:10094000043C242000000000382020380000000073
:100950000830300800000008301010201800000097
:10096000281810280000000048702018000000001F
:100970002038282000000000007C42020000000017
:1009800000007F000000000002427C000000001018
:100990000808101000000000020CE0E86480F8E98C
:1009A00033E83360110460F0ED33EC337009E8FC98
:1009B000E9FDEAFEEBFF220460DED3EB9FEA9EE94D
:1009C0009DE8C2E78CF0C2F795F0400CE8CCF8E95E
:1009D000CDF9EACEFAEBCFFB120CAB85D0F0580480
:1009E000700320D5B3E80470075002B2D5020CEAB8
:1009F00092D5EC0460F7E4CCC0E0C398F8603B9477
:100A0000186008400DD0E0FB020CC2E4FBFAC9FC00
:100A10008028E830E406E4C9FBE4CAFCE830E305DA
:100A2000E4C9CACBFCE854076010F8C3E913F9EA3B
:100A300013FAEB13FBEC13FCD8F130F52FC3E49C55
:100A4000FCEF9BFFEE9AFEED99FDD0E0FBEF4E4DE3
:100A50004C701222DB03020CE7EC2CFCEF33FFEEB0
:100A600033FEED33FDED30E7EB020CC2EF2BFFEE72
:100A70003AFEED39FDD0E0FB50130BBB0003020C36
:100A8000EAED13FDEE13FEEF13FFEC13FC020CC2B4
:100A9000EC4D6011E8497017ED33EC3304600DE460
:100AA000FCFFFEFD22E933E8330470F8020CE0128B
:100AB0000CAB58046009E4CC24815006285009028C
:100AC0000CEA284003020CE7C0E0EB4A7044B9800E
:100AD00006D0E0FB020CD6EF4E701CBD8008EBFF89
:100AE000EAFEE9FD80EBE98DF0A4FEE5F0020B796A
:100AF000E9CDF9EAFEEBFFEF89F0A4FCE5F0CE8941
:100B0000F0A42EFFE435F0CD89F0A42DFEE435F0FD
:100B10008067EF4E7005BD80D780C3EF8BF0A4AC2B
:100B2000F0EE8BF0A42CFCE435F0F8EF8AF0A42C66
:100B3000E5F038FCE433CB8DF0A42CFCE5F03BF879
:100B4000EE8AF0A42CFCE5F038F8E433CF89F0A469
:100B50002CFCE5F038CF3400CE89F0A42FFFE5F06F
:100B60003EFEE433C98DF0A42EFEE5F039CD8AF0C7
:100B7000A42FFFE5F03EFEE43DFD33D0E0FB50073F
:100B80000BBB000F020CEAEC2CFCEF33FFEE33FE44
:100B9000ED33FD020CC2020CEAEC5D046005E8597D
:100BA000047003020CE0120CAB580460F6EC4860D1
:100BB000F2EC7004FDFEFF22C860DB2481C85009FE
:100BC000C39860025006020CE79850CAF582E929E2
:100BD0004B4A7005AB82020CD675F0007C1A788007
:100BE000C3EF9BEE9AED99400DC3EF9BFFEE9AFE8B
:100BF000ED99FDE842F0DC23ACF0D0E0FFD0E0FE60
:100C0000D0E0FDAB8220E7101BEB60BAEC2CFCEFD0
:100C100033FFEE33FEED33FD020CC2E803F830E79C
:100C200005C0F075F000EF2FFFEE33FEED33FD4011
:100C3000B830E7C280AA75F020800E75F0108005EC
:100C400075F0087D007E007F003392D530D5031209
:100C50000DECEC334010EF33FFEE33FEED33FDECE3
:100C600033FCD5F0ED22E5F0247EA2D513CC92E73B
:100C7000CDCEFF22EDD2E7CD33EC3392D5248140A7
:100C800006E4FFFEFDFC22FCE4CFCECDCC24E050F8
:100C90001174FF80EDC3CC13CCCD13CDCE13CECFCA
:100CA00013CF0470F030D5DE020DECE9D2E7C93382
:100CB000E833F892D5EDD2E7CD33EC33FC5002B2F5
:100CC000D522EC30E7100FBF000C0EBE00080DBDA2
:100CD00000040BEB6014A2D5EB13FCED92E7FD22B0
:100CE00074FFFCFDFEFF22E480F8A2D574FF13FC24
:100CF0007D80E480EFC0E0EFFBEEFAEDF9ECF81256
:100D00000A90D0E0F5F0EFFBEEFAEDF9ECF8120DF9
:100D1000FAA3A3A3A3E8C0E0E9C0E0EAC0E0EBC007
:100D2000E0C0F0120A90120E16A3A3A3A312099F0B
:100D3000D0F0D0E0FBD0E0FAD0E0F9D0E0F8D5F088
:100D4000D422BB010689828A83E0225002E722BBBB
:100D5000FE02E32289828A83E49322BB010CE582AE
:100D600029F582E5833AF583E0225006E92582F8E9
:100D7000E622BBFE06E92582F8E222E58229F58219
:100D8000E5833AF583E49322C5F0F8A3E028F0C5A3
:100D9000F0F8E582158270021583E038F022A3F89E
:100DA000E0C5F025F0F0E582158270021583E0C8F9
:100DB00038F0E822BB0110E58229F582E5833AF597
:100DC00083E0F5F0A3E0225009E92582F886F008D7
:100DD000E622BBFE0AE92582F8E2F5F008E222E508
:100DE000832AF583E993F5F0A3E99322C3E49FFFF7
:100DF000E49EFEE49DFDE49CFC22E493FC740193DC
:100E0000FD740293FE740393FF22E0F8A3E0F9A3BC
:100E1000E0FAA3E0FB22E493F8740193F9740293DF
:100E2000FA740393FB22ECF0A3EDF0A3EEF0A3EF32
:100E3000F022EFD394077480948040037FFF221246
:100E40000D42FED394037480948040037FFF22EF11
:100E50007044EE700B900001120D5BF452935294AB
:100E6000120D426401700B900001120D5B4293F46D
:100E70005294120D42FE6402700A900001120D5B42
:100E800042934294EE6403700D900001120D5BFEDC
:100E9000F45293EE4294EF64017046120D42FE70DC
:100EA0000B900001120D5BF452915292EE640170AE
:100EB0000B900001120D5B4291F45292120D4264AC
:100EC00002700A900001120D5B42914292120D4293
:100ED0006403700D900001120D5BFEF45291EE421E
:100EE00092EF64027046120D42FE700B90000112E8
:100EF0000D5BF452955296EE6401700B9000011256
:100F00000D5B4295F45296120D426402700A9000F5
:100F100001120D5B42954296120D426403700D90D2
:100F20000001120D5BFEF45295EE4296EF640370E1
:100F300046120D42FE700B900001120D5BF452B18F
:100F400052B2EE6401700B900001120D5B42B1F4DD
:100F500052B2120D426402700A900001120D5B42FF
:100F6000B142B2120D426403700D900001120D5B8C
:100F7000FEF452B1EE42B2EF64047046120D42FE2E
:100F8000700B900001120D5BF452B352B4EE640189
:100F9000700B900001120D5B42B3F452B4120D427B
:100FA0006402700A900001120D5B42B342B4120D4C
:100FB000426403700D900001120D5BFEF452B3EE1B
:100FC00042B4EF64057046120D42FE700B900001B2
:100FD000120D5BF452C952CAEE6401700B9000010D
:100FE000120D5B42C9F452CA120D426402700A909B
:100FF0000001120D5B42C942CA120D426403700D1A
:10100000900001120D5BFEF452C9EE42CAEF640675
:101010007046120D42FE700B900001120D5BF452EF
:10102000CB52CCEE6401700B900001120D5B42CBF1
:10103000F452CC120D426402700A900001120D5B52
:1010400042CB42CC120D426403700D900001120D90
:101050005BFEF452CBEE42CCEF64077049120D42B6
:10106000FF7E00700B900001120D5BF452E152E222
:10107000EF64014E700B900001120D5B42E1F452DF
:10108000E2120D426402700A900001120D5B42E10F
:1010900042E2120D426403700D900001120D5BFFDD
:1010A000F452E1EF42E27F0022AD07ED600302114E
:1010B00033C28C120D42FEC39403748094804003AB
:1010C0007FFF22E58954FC4EF589900001120D5BEB
:1010D000FED394027480948040037FFF22EEFF7E53
:1010E000007006538E7F5389FBEF64014E700643F8
:1010F0008E805389FBEF64024E7003438904900095
:1011000002120D5BFFE58F54FE4FF58F9000031226
:101110000DB4E5F0F58C900003120DB4F58A900043
:1011200005120D5B7006C28CC2A98004D28CD2A9B4
:101130007F0022ED640160030211C0C28E120D42D5
:10114000FEC394037480948040037FFF22EEC45456
:10115000F0FFE58954CF4FF589900001120D5BFE39
:10116000D394027480948040037FFF22EEFF7E00C0
:101170007006538EBF5389BFEF64014E7006438ED5
:10118000405389BFEF64024E7003438940900002D0
:10119000120D5B25E0FFE58F54FD4FF58F900003A6
:1011A000120DB4E5F0F58D900003120DB4F58B909F
:1011B0000005120D5B7004C28E8002D28E7F002269
:1011C000ED64027061538EEF900001120D5BFF7EA3
:1011D000007006538EFB538EF7EF64014E7006438A
:1011E0008E04538EF7EF64024E7003438E08900016
:1011F00002120D5B25E025E0FFE58F54FB4FF58FD4
:10120000900003120DB4E5F0F5D6900003120DB472
:10121000F5D7900005120D5BC454F0FFE58E54EF36
:101220004FF58E7F0022ED6403706953D1F7900073
:1012300001120D5BFED394027480948040037FFF03
:1012400022EEFF7E00700653D1FD53D1FBEF640107
:101250004E700643D10253D1FBEF64024E7003433C
:10126000D104900002120D5BFFE5D154FE4FF5D181
:10127000900003120DB4E5F0F5D4900003120DB404
:10128000F5D5900005120D5B33333354F8FFE5D1EB
:1012900054F78076ED6404707753D17F900001128B
:1012A0000D5BFD7C00D394027480948040037FFF2B
:1012B00022ED4C700653D1DF53D1BF900001120DC7
:1012C0005B6401700643D12053D1BF900001120D21
:1012D0005B6402700343D140900002120D5BC45462
:1012E000F0FFE5D154EF4FF5D1900003120DB4FD9E
:1012F000ACF0ECF5D2AF058FD3900005120D5BC4B6
:101300003333335480FFE5D1547F4FF5D17F002232
:101310007FFF223A70FA83BCAAE9E43E81E0F8BF7D
:101320009DE9E63F80000039283C1ABB9969663D7B
:10133000A335E3BF255DE73FC90FDB418DDBCCC49F
:101340004936EE45C9913FC5B0F83D3F800000C326
:1013500017F534452FFA73C60AFDDD12141C04A2DA
:10136000E192001420E0159013137404120CF58020
:101370003012141C30E102B20020E0EBA883A982F5
:10138000900D9F120E268982888390132774041271
:101390000CF58582F0900D9F120E0A85F082120ADC
:1013A00090ED4C6007300004EC6480FC2212141CA9
:1013B000C0E0A883A982900D9F120E26898288839F
:1013C00090134B7403120CF58582F0900D9F120E52
:1013D0000A85F082120A90900D9FE0CCF0A3E0CD38
:1013E000F0A3E0CEF0A3E0CFF090133B7403120C17
:1013F000F5D0828582F0900D9F120E0A85F082E56D
:101400008230E007120B99B2008096EFCBFFEECA54
:10141000FEEDC9FDECC8FC120B998085ED33EC5450
:101420007FCC33920024605007D0E0D0E0020CE083
:101430007B837AF97922783E120A90EDF933ECF841
:101440003324815011EFFBEEFA120C74120C36ECBF
:10145000B2E7FC12099FED33EC33602F2403F8C38D
:1014600013FCED92E7FDE82481E4501FECF8EDF960
:10147000EEFAEFFB120C74EF04C2E0FCF582120CE2
:1014800040ECB2E7FC12099FE58203FAED33EC333E
:1014900060071413FCED92E7FDEA22900D94EFF043
:1014A000A3EDF0A3EBF0E4A3F0A3F0900D97E0FC24
:1014B000A3E0FDD39468EC9401400302159BE41271
:1014C0000C3B7BD87A0F79497840120A90E4FBFAFA
:1014D00079347843120B9912135BC004C005C0061F
:1014E000C007900D96E0FCE4120C40D003D002D06F
:1014F00001D000120A90C004C005C006C007900DBC
:1015000094E0FCE4120C40D003D002D001D00012D1
:10151000099F120C74900D99EFF0900D97E0FCA3C9
:10152000E0FDE4120C3B7BD87A0F79497840120A2F
:1015300090E4FBFA79347843120B99121371C004CA
:10154000C005C006C007900D96E0FCE4120C40D028
:1015500003D002D001D000120A90C004C005C0061A
:10156000C007900D95E0FCE4120C40D003D002D0EF
:1015700001D00012099F120C74900D9AEFF0FD90AB
:101580000D99E0FF121980900D98E004F0600302BD
:1015900014AB900D97E004F00214AB22D2C17F147B
:1015A0007E00121AB8C2C17F327E00121AB8D2C1B0
:1015B0007F147E00121AB8E4FD7FAE1219EFE4FD2D
:1015C000FF1219EFE4FD7F101219EFE4FD7F4012C6
:1015D00019EFE4FD7F811219EFE4FD7FCF1219EFBF
:1015E000E4FD7FC81219EFE4FD7FA11219EFE4FDBD
:1015F0007FA61219EFE4FD7FA81219EFE4FD7F3FEB
:101600001219EFE4FD7FD31219EFE4FDFF1219EF79
:10161000E4FD7FD51219EFE4FD7F801219EFE4FDA0
:101620007FD91219EFE4FD7FF11219EFE4FD7FDAA3
:101630001219EFE4FD7F121219EFE4FD7FDB12199E
:10164000EFE4FD7F401219EFE4FD7F201219EFE473
:10165000FD7F021219EF1219EBE4FD7F141219EF4E
:10166000E4FD7FA41219EFE4FD7FA61219EFE4FD5B
:101670007FAF1219EFE4FF121847E4FDFF021A636F
:10168000900D90EDF0A3EBF0900D8FEFF0E4900D46
:1016900093F0FED3EF94807480948040030217434C
:1016A000C3748094805003021743900D92E024F895
:1016B000603424026003021743E4900D93F0900D10
:1016C00092E0FFA3E0C39F507AE0FF900D91E07598
:1016D000F008A424F0F582E5F03408121947900DC3
:1016E00093E004F080D8E4900D93F0900D92E0FF29
:1016F000A3E0C39F504DE0FF900D91E075F010A462
:101700002400F582E5F034FE121947900D93E0FFB6
:10171000900D91E075F010A42408F582E5F034FEF8
:10172000F583E5822FF582E43583F583E0FB900DA8
:101730008FE02FFFA3E004FD12195E900D93E004EB
:10174000F080A822787FE4F6D8FD75812002178BFF
:10175000021A16E493A3F8E493A34003F68001F27F
:1017600008DFF48029E493A3F85407240CC8C3339A
:10177000C4540F4420C8834004F456800146F6DF69
:10178000E4800B0102040810204080900003E47EF6
:10179000019360BCA3FF543F30E509541FFEE4935E
:1017A000A360010ECF54C025E060A840B8E493A325
:1017B000FAE493A3F8E493A3C8C582C8CAC583CA50
:1017C000F0A3C8C582C8CAC583CADFE9DEE780BE08
:1017D000900D9BEFF0A3EDF0A3EBF0E4A3F0900DE0
:1017E0009EE0C3941074809480505BE0FF900D9D48
:1017F000E0C43354E024E8F582E4340CF583E58258
:101800002FF582E43583F583E0900D9B12195790F4
:101810000D9EE0FF900D9DE0C43354E024F8F58266
:10182000E4340CF583E5822FF582E43583F583E01B
:10183000FB900D9BE02FFFA3E004FD12195E900DBD
:101840009EE004F0809822900D89EFF0E4A3F090E0
:101850000D8AE0FDC39408748094805044E4FF1224
:101860001A63E4FCECC3948074809480502B900D38
:1018700089E0FF7D011219EFE0FFA3E075F080A47D
:1018800024F0F582E5F03405F583E5822CF582E459
:101890003583F583EFF00C80CB900D8AE004F08067
:1018A000AE22900D89EFF0A3EDF0A3EBF0A3EAF0E8
:1018B000A3E9F0900D8BE0FBA3E0FAA3E0F9120D91
:1018C00042FB6036900D89E0FFA3E0FD900D8EE0B5
:1018D000900D92F0121680900D89E02408F0D394B8
:1018E00078748094804007E4F0A3E02402F0900D27
:1018F0008CE475F001120D8880B92243BA80E4FBB4
:10190000EBC39408748094805039AD03E4FF121A3D
:1019100063E4FCECC3948074809480502375F08061
:10192000EBA424F0F582E5F03405F583E5822CF58F
:1019300082E43583F583E0FF7D011219EF0C80D33B
:101940000B80BD53BA7F22F583E5822FF582E43503
:1019500083F583E0900D8FFBE02FFFA3E0FD43BAFA
:101960008075F080EDA424F0F582E5F03405F58370
:10197000E5822FF582E43583F583EBF053BA7F22BD
:10198000ED131313541FFEED5407FD75F080EEA404
:1019900024F0F582E5F03405F583E5822FF582E445
:1019A0003583F583E0FCA8057401088002C333D8B1
:1019B000FC4CFBAD0602195E900DA3EBF0A3EAF020
:1019C000A3E9F0900DA3E0FBA3E0FAA3E0F9120D68
:1019D000426017900DA3A3E475F001120D9EA9F0CB
:1019E000FA120D42FF121B0880D922E4FD7F8DED13
:1019F00024FF92B3C2B5E4FEEEC3940874809480D1
:101A0000500FC2B2EF3392B4D2B2EF25E0FF0E8096
:101A1000E7D2B5D2B322E4900D88F0121A3F7FF4DA
:101A20007E01121AB8121B107BFF7A1B7913900DDE
:101A30008E7408F0E4FDFF1218A21218FB80E97BF7
:101A4000037DFFE4FF121ACF7B037DFF7F03121A91
:101A5000CF7B037D027F04121ACF12159C121AA1AC
:101A6000021A83AC07ED24B0FFE4FD1219EFEC5429
:101A7000F0C4540F4410FF1219EFEC540F4401FF4F
:101A80000219EFE4900D89F0A3F0A3F0A374F8F02D
:101A9000A37430F0E4A3F07B017A0D7989FF021082
:101AA000A9759850438E04438E0175D78F75D6FD66
:101AB000438E10C298C299227D607C09ED1D700191
:101AC0001C144C70F7EF1F70011E144E70EA229028
:101AD0000D89EBF0A3EDF07B017A0D7989020E32CE
:101AE000900DA6EFF0121B08900DA6E0FF22121930
:101AF000EB7F141219EF7FAF0219EF1219EB7F1071
:101B00001219EF7FAE0219EF8F993099FDC2992219
:101B1000D2AF22202122232425262728292A2B2C34
:101B20002D2E2F303132333435363738393A3B3C6D
:101B30003D3E3F404142434445464748494A4B4C5D
:101B40004D4E4F505152535455565758595A5B5C4D
:101B50005D5E5F606162636465666768696A6B6C3D
:101B60006D6E6F707172737475767778797A7B7C2D
:031B70007D7E0077
:00000001FF
